{
  "contractName": "FlokiKishu",
  "abi": [
    {
      "inputs": [],
      "stateMutability": "nonpayable",
      "type": "constructor"
    },
    {
      "anonymous": false,
      "inputs": [
        {
          "indexed": true,
          "internalType": "address",
          "name": "owner",
          "type": "address"
        },
        {
          "indexed": true,
          "internalType": "address",
          "name": "spender",
          "type": "address"
        },
        {
          "indexed": false,
          "internalType": "uint256",
          "name": "value",
          "type": "uint256"
        }
      ],
      "name": "Approval",
      "type": "event"
    },
    {
      "anonymous": false,
      "inputs": [
        {
          "indexed": true,
          "internalType": "address",
          "name": "previousOwner",
          "type": "address"
        },
        {
          "indexed": true,
          "internalType": "address",
          "name": "newOwner",
          "type": "address"
        }
      ],
      "name": "OwnershipTransferred",
      "type": "event"
    },
    {
      "anonymous": false,
      "inputs": [
        {
          "indexed": true,
          "internalType": "address",
          "name": "from",
          "type": "address"
        },
        {
          "indexed": true,
          "internalType": "address",
          "name": "to",
          "type": "address"
        },
        {
          "indexed": false,
          "internalType": "uint256",
          "name": "value",
          "type": "uint256"
        }
      ],
      "name": "Transfer",
      "type": "event"
    },
    {
      "inputs": [],
      "name": "_maxTxAmount",
      "outputs": [
        {
          "internalType": "uint256",
          "name": "",
          "type": "uint256"
        }
      ],
      "stateMutability": "view",
      "type": "function",
      "constant": true
    },
    {
      "inputs": [],
      "name": "owner",
      "outputs": [
        {
          "internalType": "address",
          "name": "",
          "type": "address"
        }
      ],
      "stateMutability": "view",
      "type": "function",
      "constant": true
    },
    {
      "inputs": [],
      "name": "renounceOwnership",
      "outputs": [],
      "stateMutability": "nonpayable",
      "type": "function"
    },
    {
      "inputs": [
        {
          "internalType": "address",
          "name": "newOwner",
          "type": "address"
        }
      ],
      "name": "transferOwnership",
      "outputs": [],
      "stateMutability": "nonpayable",
      "type": "function"
    },
    {
      "inputs": [],
      "name": "name",
      "outputs": [
        {
          "internalType": "string",
          "name": "",
          "type": "string"
        }
      ],
      "stateMutability": "view",
      "type": "function",
      "constant": true
    },
    {
      "inputs": [],
      "name": "symbol",
      "outputs": [
        {
          "internalType": "string",
          "name": "",
          "type": "string"
        }
      ],
      "stateMutability": "view",
      "type": "function",
      "constant": true
    },
    {
      "inputs": [],
      "name": "decimals",
      "outputs": [
        {
          "internalType": "uint8",
          "name": "",
          "type": "uint8"
        }
      ],
      "stateMutability": "view",
      "type": "function",
      "constant": true
    },
    {
      "inputs": [],
      "name": "totalSupply",
      "outputs": [
        {
          "internalType": "uint256",
          "name": "",
          "type": "uint256"
        }
      ],
      "stateMutability": "pure",
      "type": "function",
      "constant": true
    },
    {
      "inputs": [
        {
          "internalType": "address",
          "name": "account",
          "type": "address"
        }
      ],
      "name": "balanceOf",
      "outputs": [
        {
          "internalType": "uint256",
          "name": "",
          "type": "uint256"
        }
      ],
      "stateMutability": "view",
      "type": "function",
      "constant": true
    },
    {
      "inputs": [
        {
          "internalType": "address",
          "name": "recipient",
          "type": "address"
        },
        {
          "internalType": "uint256",
          "name": "amount",
          "type": "uint256"
        }
      ],
      "name": "transfer",
      "outputs": [
        {
          "internalType": "bool",
          "name": "",
          "type": "bool"
        }
      ],
      "stateMutability": "nonpayable",
      "type": "function"
    },
    {
      "inputs": [
        {
          "internalType": "address",
          "name": "owner",
          "type": "address"
        },
        {
          "internalType": "address",
          "name": "spender",
          "type": "address"
        }
      ],
      "name": "allowance",
      "outputs": [
        {
          "internalType": "uint256",
          "name": "",
          "type": "uint256"
        }
      ],
      "stateMutability": "view",
      "type": "function",
      "constant": true
    },
    {
      "inputs": [
        {
          "internalType": "address",
          "name": "spender",
          "type": "address"
        },
        {
          "internalType": "uint256",
          "name": "amount",
          "type": "uint256"
        }
      ],
      "name": "approve",
      "outputs": [
        {
          "internalType": "bool",
          "name": "",
          "type": "bool"
        }
      ],
      "stateMutability": "nonpayable",
      "type": "function"
    },
    {
      "inputs": [
        {
          "internalType": "address",
          "name": "sender",
          "type": "address"
        },
        {
          "internalType": "address",
          "name": "recipient",
          "type": "address"
        },
        {
          "internalType": "uint256",
          "name": "amount",
          "type": "uint256"
        }
      ],
      "name": "transferFrom",
      "outputs": [
        {
          "internalType": "bool",
          "name": "",
          "type": "bool"
        }
      ],
      "stateMutability": "nonpayable",
      "type": "function"
    },
    {
      "inputs": [
        {
          "internalType": "address",
          "name": "spender",
          "type": "address"
        },
        {
          "internalType": "uint256",
          "name": "addedValue",
          "type": "uint256"
        }
      ],
      "name": "increaseAllowance",
      "outputs": [
        {
          "internalType": "bool",
          "name": "",
          "type": "bool"
        }
      ],
      "stateMutability": "nonpayable",
      "type": "function"
    },
    {
      "inputs": [
        {
          "internalType": "address",
          "name": "spender",
          "type": "address"
        },
        {
          "internalType": "uint256",
          "name": "subtractedValue",
          "type": "uint256"
        }
      ],
      "name": "decreaseAllowance",
      "outputs": [
        {
          "internalType": "bool",
          "name": "",
          "type": "bool"
        }
      ],
      "stateMutability": "nonpayable",
      "type": "function"
    },
    {
      "inputs": [
        {
          "internalType": "address",
          "name": "account",
          "type": "address"
        }
      ],
      "name": "isExcluded",
      "outputs": [
        {
          "internalType": "bool",
          "name": "",
          "type": "bool"
        }
      ],
      "stateMutability": "view",
      "type": "function",
      "constant": true
    },
    {
      "inputs": [],
      "name": "totalFees",
      "outputs": [
        {
          "internalType": "uint256",
          "name": "",
          "type": "uint256"
        }
      ],
      "stateMutability": "view",
      "type": "function",
      "constant": true
    },
    {
      "inputs": [
        {
          "internalType": "uint256",
          "name": "maxTxPercent",
          "type": "uint256"
        }
      ],
      "name": "setMaxTxPercent",
      "outputs": [],
      "stateMutability": "nonpayable",
      "type": "function"
    },
    {
      "inputs": [
        {
          "internalType": "uint256",
          "name": "tAmount",
          "type": "uint256"
        }
      ],
      "name": "reflect",
      "outputs": [],
      "stateMutability": "nonpayable",
      "type": "function"
    },
    {
      "inputs": [
        {
          "internalType": "uint256",
          "name": "tAmount",
          "type": "uint256"
        },
        {
          "internalType": "bool",
          "name": "deductTransferFee",
          "type": "bool"
        }
      ],
      "name": "reflectionFromToken",
      "outputs": [
        {
          "internalType": "uint256",
          "name": "",
          "type": "uint256"
        }
      ],
      "stateMutability": "view",
      "type": "function",
      "constant": true
    },
    {
      "inputs": [
        {
          "internalType": "uint256",
          "name": "rAmount",
          "type": "uint256"
        }
      ],
      "name": "tokenFromReflection",
      "outputs": [
        {
          "internalType": "uint256",
          "name": "",
          "type": "uint256"
        }
      ],
      "stateMutability": "view",
      "type": "function",
      "constant": true
    },
    {
      "inputs": [
        {
          "internalType": "address",
          "name": "account",
          "type": "address"
        }
      ],
      "name": "excludeAccount",
      "outputs": [],
      "stateMutability": "nonpayable",
      "type": "function"
    },
    {
      "inputs": [
        {
          "internalType": "address",
          "name": "account",
          "type": "address"
        }
      ],
      "name": "includeAccount",
      "outputs": [],
      "stateMutability": "nonpayable",
      "type": "function"
    }
  ],
  "bytecode": "0x60806040526200001b68056bc75e2d63100000600019620002c5565b620000299060001962000264565b60065560408051808201909152600f8082526e466c6f6b69204b6973687520496e7560881b60209092019182526200006491600891620001b5565b5060408051808201909152600680825265464c4f4b494960d01b60209092019182526200009491600991620001b5565b50600a805460ff1916600917905567016345785d8a0000600b55348015620000bb57600080fd5b50620000d0620000ca62000161565b62000165565b60065460016000620000e162000161565b6001600160a01b031681526020810191909152604001600020556200010562000161565b6001600160a01b031660006001600160a01b03167fddf252ad1be2c89b69c2b068fc378daa952ba7f163c4a11628f55a4df523b3ef68056bc75e2d631000006040516200015391906200025b565b60405180910390a3620002e6565b3390565b600080546001600160a01b038381166001600160a01b0319831681178455604051919092169283917f8be0079c531659141344cd1fd0a4f28419497f9722a3daafe3b4186f6b6457e09190a35050565b828054620001c39062000288565b90600052602060002090601f016020900481019282620001e7576000855562000232565b82601f106200020257805160ff191683800117855562000232565b8280016001018555821562000232579182015b828111156200023257825182559160200191906001019062000215565b506200024092915062000244565b5090565b5b8082111562000240576000815560010162000245565b90815260200190565b6000828210156200028357634e487b7160e01b81526011600452602481fd5b500390565b6002810460018216806200029d57607f821691505b60208210811415620002bf57634e487b7160e01b600052602260045260246000fd5b50919050565b600082620002e157634e487b7160e01b81526012600452602481fd5b500690565b611a7280620002f66000396000f3fe608060405234801561001057600080fd5b506004361061014d5760003560e01c8063715018a6116100c3578063cba0e9961161007c578063cba0e99614610289578063d543dbeb1461029c578063dd62ed3e146102af578063f2cc0c18146102c2578063f2fde38b146102d5578063f84354f1146102e85761014d565b8063715018a6146102365780637d1db4a51461023e5780638da5cb5b1461024657806395d89b411461025b578063a457c2d714610263578063a9059cbb146102765761014d565b806323b872dd1161011557806323b872dd146101c25780632d838119146101d5578063313ce567146101e857806339509351146101fd5780634549b0391461021057806370a08231146102235761014d565b8063053ab1821461015257806306fdde0314610167578063095ea7b31461018557806313114a9d146101a557806318160ddd146101ba575b600080fd5b610165610160366004611523565b6102fb565b005b61016f6103bd565b60405161017c919061158d565b60405180910390f35b6101986101933660046114fa565b61044f565b60405161017c9190611582565b6101ad61046d565b60405161017c91906118fe565b6101ad610473565b6101986101d03660046114bf565b610480565b6101ad6101e3366004611523565b610507565b6101f061054a565b60405161017c9190611907565b61019861020b3660046114fa565b610553565b6101ad61021e36600461153b565b6105a1565b6101ad610231366004611473565b610603565b610165610665565b6101ad6106b0565b61024e6106b6565b60405161017c919061156e565b61016f6106c5565b6101986102713660046114fa565b6106d4565b6101986102843660046114fa565b61073c565b610198610297366004611473565b610750565b6101656102aa366004611523565b61076e565b6101ad6102bd36600461148d565b6107d1565b6101656102d0366004611473565b6107fc565b6101656102e3366004611473565b610934565b6101656102f6366004611473565b6109a5565b6000610305610b7a565b6001600160a01b03811660009081526004602052604090205490915060ff161561034a5760405162461bcd60e51b8152600401610341906118b2565b60405180910390fd5b600061035583610b7e565b505050506001600160a01b03831660009081526001602052604090205490915061037f9082610bca565b6001600160a01b0383166000908152600160205260409020556006546103a59082610bca565b6006556007546103b59084610bdd565b600755505050565b6060600880546103cc90611983565b80601f01602080910402602001604051908101604052809291908181526020018280546103f890611983565b80156104455780601f1061041a57610100808354040283529160200191610445565b820191906000526020600020905b81548152906001019060200180831161042857829003601f168201915b5050505050905090565b600061046361045c610b7a565b8484610be9565b5060015b92915050565b60075490565b68056bc75e2d6310000090565b600061048d848484610c9d565b6104fd84610499610b7a565b6104f8856040518060600160405280602881526020016119f0602891396001600160a01b038a166000908152600360205260408120906104d7610b7a565b6001600160a01b031681526020810191909152604001600020549190610ecb565b610be9565b5060019392505050565b600060065482111561052b5760405162461bcd60e51b815260040161034190611623565b6000610535610ef7565b90506105418382610f1a565b9150505b919050565b600a5460ff1690565b6000610463610560610b7a565b846104f88560036000610571610b7a565b6001600160a01b03908116825260208083019390935260409182016000908120918c168152925290205490610bdd565b600068056bc75e2d631000008311156105cc5760405162461bcd60e51b81526004016103419061172c565b816105ea5760006105dc84610b7e565b509294506104679350505050565b60006105f584610b7e565b509194506104679350505050565b6001600160a01b03811660009081526004602052604081205460ff161561064357506001600160a01b038116600090815260026020526040902054610545565b6001600160a01b03821660009081526001602052604090205461046790610507565b61066d610b7a565b6001600160a01b031661067e6106b6565b6001600160a01b0316146106a45760405162461bcd60e51b8152600401610341906117ab565b6106ae6000610f26565b565b600b5481565b6000546001600160a01b031690565b6060600980546103cc90611983565b60006104636106e1610b7a565b846104f885604051806060016040528060258152602001611a18602591396003600061070b610b7a565b6001600160a01b03908116825260208083019390935260409182016000908120918d16815292529020549190610ecb565b6000610463610749610b7a565b8484610c9d565b6001600160a01b031660009081526004602052604090205460ff1690565b610776610b7a565b6001600160a01b03166107876106b6565b6001600160a01b0316146107ad5760405162461bcd60e51b8152600401610341906117ab565b6107cb60646107c568056bc75e2d6310000084610f76565b90610f1a565b600b5550565b6001600160a01b03918216600090815260036020908152604080832093909416825291909152205490565b610804610b7a565b6001600160a01b03166108156106b6565b6001600160a01b03161461083b5760405162461bcd60e51b8152600401610341906117ab565b6001600160a01b03811660009081526004602052604090205460ff16156108745760405162461bcd60e51b8152600401610341906116f5565b6001600160a01b038116600090815260016020526040902054156108ce576001600160a01b0381166000908152600160205260409020546108b490610507565b6001600160a01b0382166000908152600260205260409020555b6001600160a01b03166000818152600460205260408120805460ff191660019081179091556005805491820181559091527f036b6384b5eca791c62761152d0c79bb0604c104a5fb6f4eb0703f3154bb3db00180546001600160a01b0319169091179055565b61093c610b7a565b6001600160a01b031661094d6106b6565b6001600160a01b0316146109735760405162461bcd60e51b8152600401610341906117ab565b6001600160a01b0381166109995760405162461bcd60e51b81526004016103419061166d565b6109a281610f26565b50565b6109ad610b7a565b6001600160a01b03166109be6106b6565b6001600160a01b0316146109e45760405162461bcd60e51b8152600401610341906117ab565b6001600160a01b03811660009081526004602052604090205460ff16610a1c5760405162461bcd60e51b8152600401610341906116f5565b60005b600554811015610b7657816001600160a01b031660058281548110610a5457634e487b7160e01b600052603260045260246000fd5b6000918252602090912001546001600160a01b03161415610b645760058054610a7f9060019061196c565b81548110610a9d57634e487b7160e01b600052603260045260246000fd5b600091825260209091200154600580546001600160a01b039092169183908110610ad757634e487b7160e01b600052603260045260246000fd5b600091825260208083209190910180546001600160a01b0319166001600160a01b039485161790559184168152600282526040808220829055600490925220805460ff191690556005805480610b3d57634e487b7160e01b600052603160045260246000fd5b600082815260209020810160001990810180546001600160a01b0319169055019055610b76565b80610b6e816119be565b915050610a1f565b5050565b3390565b6000806000806000806000610b9288610f82565b915091506000610ba0610ef7565b90506000806000610bb28c8686610fb5565b919e909d50909b509599509397509395505050505050565b6000610bd6828461196c565b9392505050565b6000610bd68284611915565b6001600160a01b038316610c0f5760405162461bcd60e51b81526004016103419061186e565b6001600160a01b038216610c355760405162461bcd60e51b8152600401610341906116b3565b6001600160a01b0380841660008181526003602090815260408083209487168084529490915290819020849055517f8c5be1e5ebec7d5bd14f71427d1e84f3dd0314c0f7b2291e5b200ac8c7c3b92590610c909085906118fe565b60405180910390a3505050565b6001600160a01b038316610cc35760405162461bcd60e51b815260040161034190611829565b6001600160a01b038216610ce95760405162461bcd60e51b8152600401610341906115e0565b60008111610d095760405162461bcd60e51b8152600401610341906117e0565b610d116106b6565b6001600160a01b0316836001600160a01b031614158015610d4b5750610d356106b6565b6001600160a01b0316826001600160a01b031614155b15610d7257600b54811115610d725760405162461bcd60e51b815260040161034190611763565b6001600160a01b03831660009081526004602052604090205460ff168015610db357506001600160a01b03821660009081526004602052604090205460ff16155b15610dc857610dc3838383610ff1565b610ec6565b6001600160a01b03831660009081526004602052604090205460ff16158015610e0957506001600160a01b03821660009081526004602052604090205460ff165b15610e1957610dc3838383611108565b6001600160a01b03831660009081526004602052604090205460ff16158015610e5b57506001600160a01b03821660009081526004602052604090205460ff16155b15610e6b57610dc38383836111ae565b6001600160a01b03831660009081526004602052604090205460ff168015610eab57506001600160a01b03821660009081526004602052604090205460ff165b15610ebb57610dc38383836111ef565b610ec68383836111ae565b505050565b60008184841115610eef5760405162461bcd60e51b8152600401610341919061158d565b505050900390565b6000806000610f0461125f565b9092509050610f138282610f1a565b9250505090565b6000610bd6828461192d565b600080546001600160a01b038381166001600160a01b0319831681178455604051919092169283917f8be0079c531659141344cd1fd0a4f28419497f9722a3daafe3b4186f6b6457e09190a35050565b6000610bd6828461194d565b60008080610f9c6002610f96866064610f1a565b90610f76565b90506000610faa8583610bca565b935090915050915091565b6000808080610fc48786610f76565b90506000610fd28787610f76565b90506000610fe08383610bca565b929992985090965090945050505050565b600080600080600061100286610b7e565b6001600160a01b038d16600090815260026020526040902054949950929750909550935091506110329087610bca565b6001600160a01b0389166000908152600260209081526040808320939093556001905220546110619086610bca565b6001600160a01b03808a1660009081526001602052604080822093909355908916815220546110909085610bdd565b6001600160a01b0388166000908152600160205260409020556110b38382611438565b866001600160a01b0316886001600160a01b03167fddf252ad1be2c89b69c2b068fc378daa952ba7f163c4a11628f55a4df523b3ef846040516110f691906118fe565b60405180910390a35050505050505050565b600080600080600061111986610b7e565b6001600160a01b038d16600090815260016020526040902054949950929750909550935091506111499086610bca565b6001600160a01b03808a16600090815260016020908152604080832094909455918a1681526002909152205461117f9083610bdd565b6001600160a01b0388166000908152600260209081526040808320939093556001905220546110909085610bdd565b60008060008060006111bf86610b7e565b6001600160a01b038d16600090815260016020526040902054949950929750909550935091506110619086610bca565b600080600080600061120086610b7e565b6001600160a01b038d16600090815260026020526040902054949950929750909550935091506112309087610bca565b6001600160a01b0389166000908152600260209081526040808320939093556001905220546111499086610bca565b600654600090819068056bc75e2d63100000825b6005548110156113f8578260016000600584815481106112a357634e487b7160e01b600052603260045260246000fd5b60009182526020808320909101546001600160a01b03168352820192909252604001902054118061131c57508160026000600584815481106112f557634e487b7160e01b600052603260045260246000fd5b60009182526020808320909101546001600160a01b03168352820192909252604001902054115b1561133a5760065468056bc75e2d6310000094509450505050611434565b61138e600160006005848154811061136257634e487b7160e01b600052603260045260246000fd5b60009182526020808320909101546001600160a01b031683528201929092526040019020548490610bca565b92506113e460026000600584815481106113b857634e487b7160e01b600052603260045260246000fd5b60009182526020808320909101546001600160a01b031683528201929092526040019020548390610bca565b9150806113f0816119be565b915050611273565b5060065461140f9068056bc75e2d63100000610f1a565b82101561142e5760065468056bc75e2d63100000935093505050611434565b90925090505b9091565b6006546114459083610bca565b6006556007546114559082610bdd565b6007555050565b80356001600160a01b038116811461054557600080fd5b600060208284031215611484578081fd5b610bd68261145c565b6000806040838503121561149f578081fd5b6114a88361145c565b91506114b66020840161145c565b90509250929050565b6000806000606084860312156114d3578081fd5b6114dc8461145c565b92506114ea6020850161145c565b9150604084013590509250925092565b6000806040838503121561150c578182fd5b6115158361145c565b946020939093013593505050565b600060208284031215611534578081fd5b5035919050565b6000806040838503121561154d578182fd5b8235915060208301358015158114611563578182fd5b809150509250929050565b6001600160a01b0391909116815260200190565b901515815260200190565b6000602080835283518082850152825b818110156115b95785810183015185820160400152820161159d565b818111156115ca5783604083870101525b50601f01601f1916929092016040019392505050565b60208082526023908201527f45524332303a207472616e7366657220746f20746865207a65726f206164647260408201526265737360e81b606082015260800190565b6020808252602a908201527f416d6f756e74206d757374206265206c657373207468616e20746f74616c207260408201526965666c656374696f6e7360b01b606082015260800190565b60208082526026908201527f4f776e61626c653a206e6577206f776e657220697320746865207a65726f206160408201526564647265737360d01b606082015260800190565b60208082526022908201527f45524332303a20617070726f766520746f20746865207a65726f206164647265604082015261737360f01b606082015260800190565b6020808252601b908201527f4163636f756e7420697320616c7265616479206578636c756465640000000000604082015260600190565b6020808252601f908201527f416d6f756e74206d757374206265206c657373207468616e20737570706c7900604082015260600190565b60208082526028908201527f5472616e7366657220616d6f756e74206578636565647320746865206d6178546040820152673c20b6b7bab73a1760c11b606082015260800190565b6020808252818101527f4f776e61626c653a2063616c6c6572206973206e6f7420746865206f776e6572604082015260600190565b60208082526029908201527f5472616e7366657220616d6f756e74206d7573742062652067726561746572206040820152687468616e207a65726f60b81b606082015260800190565b60208082526025908201527f45524332303a207472616e736665722066726f6d20746865207a65726f206164604082015264647265737360d81b606082015260800190565b60208082526024908201527f45524332303a20617070726f76652066726f6d20746865207a65726f206164646040820152637265737360e01b606082015260800190565b6020808252602c908201527f4578636c75646564206164647265737365732063616e6e6f742063616c6c207460408201526b3434b990333ab731ba34b7b760a11b606082015260800190565b90815260200190565b60ff91909116815260200190565b60008219821115611928576119286119d9565b500190565b60008261194857634e487b7160e01b81526012600452602481fd5b500490565b6000816000190483118215151615611967576119676119d9565b500290565b60008282101561197e5761197e6119d9565b500390565b60028104600182168061199757607f821691505b602082108114156119b857634e487b7160e01b600052602260045260246000fd5b50919050565b60006000198214156119d2576119d26119d9565b5060010190565b634e487b7160e01b600052601160045260246000fdfe45524332303a207472616e7366657220616d6f756e74206578636565647320616c6c6f77616e636545524332303a2064656372656173656420616c6c6f77616e63652062656c6f77207a65726fa26469706673582212202977d7fafabc7d0c2dfbff932c8eb9746d7ac00327c21c8e806a00d3d3dbc72864736f6c63430008000033",
  "immutableReferences": {},
  "source": "// SPDX-License-Identifier: MIT\n\npragma solidity ^0.8.0;\n\nimport \"@openzeppelin/contracts/access/Ownable.sol\";\nimport \"@openzeppelin/contracts/token/ERC20/IERC20.sol\";\nimport \"@openzeppelin/contracts/token/ERC20/utils/SafeERC20.sol\";\nimport \"@openzeppelin/contracts/utils/math/SafeMath.sol\";\n\ncontract FlokiKishu is Context, IERC20, Ownable {\n    using SafeMath for uint256;\n    using Address for address;\n\n    mapping (address => uint256) private _rOwned;\n    mapping (address => uint256) private _tOwned;\n    mapping (address => mapping (address => uint256)) private _allowances;\n\n    mapping (address => bool) private _isExcluded;\n    address[] private _excluded;\n   \n    uint256 private constant MAX = ~uint256(0);\n    uint256 private constant _tTotal = 100000000000 * 10**9; //100000000000 * 10**6 * 10**9;\n    uint256 private _rTotal = (MAX - (MAX % _tTotal));\n    uint256 private _tFeeTotal;\n\n    string private _name = 'Floki Kishu Inu';\n    string private _symbol = 'FLOKII';\n    uint8 private _decimals = 9;\n    \n    uint256 public _maxTxAmount = 100000000 * 10**9; //100000000 * 10**6 * 10**9;\n\n    constructor () {\n        _rOwned[_msgSender()] = _rTotal;\n        emit Transfer(address(0), _msgSender(), _tTotal);\n    }\n\n    function name() public view returns (string memory) {\n        return _name;\n    }\n\n    function symbol() public view returns (string memory) {\n        return _symbol;\n    }\n\n    function decimals() public view returns (uint8) {\n        return _decimals;\n    }\n\n    function totalSupply() public pure override returns (uint256) {\n        return _tTotal;\n    }\n\n    function balanceOf(address account) public view override returns (uint256) {\n        if (_isExcluded[account]) return _tOwned[account];\n        return tokenFromReflection(_rOwned[account]);\n    }\n\n    function transfer(address recipient, uint256 amount) public override returns (bool) {\n        _transfer(_msgSender(), recipient, amount);\n        return true;\n    }\n\n    function allowance(address owner, address spender) public view override returns (uint256) {\n        return _allowances[owner][spender];\n    }\n\n    function approve(address spender, uint256 amount) public override returns (bool) {\n        _approve(_msgSender(), spender, amount);\n        return true;\n    }\n\n    function transferFrom(address sender, address recipient, uint256 amount) public override returns (bool) {\n        _transfer(sender, recipient, amount);\n        _approve(sender, _msgSender(), _allowances[sender][_msgSender()].sub(amount, \"ERC20: transfer amount exceeds allowance\"));\n        return true;\n    }\n\n    function increaseAllowance(address spender, uint256 addedValue) public virtual returns (bool) {\n        _approve(_msgSender(), spender, _allowances[_msgSender()][spender].add(addedValue));\n        return true;\n    }\n\n    function decreaseAllowance(address spender, uint256 subtractedValue) public virtual returns (bool) {\n        _approve(_msgSender(), spender, _allowances[_msgSender()][spender].sub(subtractedValue, \"ERC20: decreased allowance below zero\"));\n        return true;\n    }\n\n    function isExcluded(address account) public view returns (bool) {\n        return _isExcluded[account];\n    }\n\n    function totalFees() public view returns (uint256) {\n        return _tFeeTotal;\n    }\n    \n    \n    function setMaxTxPercent(uint256 maxTxPercent) external onlyOwner() {\n        _maxTxAmount = _tTotal.mul(maxTxPercent).div(\n            10**2\n        );\n    }\n\n    function reflect(uint256 tAmount) public {\n        address sender = _msgSender();\n        require(!_isExcluded[sender], \"Excluded addresses cannot call this function\");\n        (uint256 rAmount,,,,) = _getValues(tAmount);\n        _rOwned[sender] = _rOwned[sender].sub(rAmount);\n        _rTotal = _rTotal.sub(rAmount);\n        _tFeeTotal = _tFeeTotal.add(tAmount);\n    }\n\n    function reflectionFromToken(uint256 tAmount, bool deductTransferFee) public view returns(uint256) {\n        require(tAmount <= _tTotal, \"Amount must be less than supply\");\n        if (!deductTransferFee) {\n            (uint256 rAmount,,,,) = _getValues(tAmount);\n            return rAmount;\n        } else {\n            (,uint256 rTransferAmount,,,) = _getValues(tAmount);\n            return rTransferAmount;\n        }\n    }\n\n    function tokenFromReflection(uint256 rAmount) public view returns(uint256) {\n        require(rAmount <= _rTotal, \"Amount must be less than total reflections\");\n        uint256 currentRate =  _getRate();\n        return rAmount.div(currentRate);\n    }\n\n    function excludeAccount(address account) external onlyOwner() {\n        require(!_isExcluded[account], \"Account is already excluded\");\n        if(_rOwned[account] > 0) {\n            _tOwned[account] = tokenFromReflection(_rOwned[account]);\n        }\n        _isExcluded[account] = true;\n        _excluded.push(account);\n    }\n\n    function includeAccount(address account) external onlyOwner() {\n        require(_isExcluded[account], \"Account is already excluded\");\n        for (uint256 i = 0; i < _excluded.length; i++) {\n            if (_excluded[i] == account) {\n                _excluded[i] = _excluded[_excluded.length - 1];\n                _tOwned[account] = 0;\n                _isExcluded[account] = false;\n                _excluded.pop();\n                break;\n            }\n        }\n    }\n\n    function _approve(address owner, address spender, uint256 amount) private {\n        require(owner != address(0), \"ERC20: approve from the zero address\");\n        require(spender != address(0), \"ERC20: approve to the zero address\");\n\n        _allowances[owner][spender] = amount;\n        emit Approval(owner, spender, amount);\n    }\n\n    function _transfer(address sender, address recipient, uint256 amount) private {\n        require(sender != address(0), \"ERC20: transfer from the zero address\");\n        require(recipient != address(0), \"ERC20: transfer to the zero address\");\n        require(amount > 0, \"Transfer amount must be greater than zero\");\n        if(sender != owner() && recipient != owner())\n          require(amount <= _maxTxAmount, \"Transfer amount exceeds the maxTxAmount.\");\n            \n        if (_isExcluded[sender] && !_isExcluded[recipient]) {\n            _transferFromExcluded(sender, recipient, amount);\n        } else if (!_isExcluded[sender] && _isExcluded[recipient]) {\n            _transferToExcluded(sender, recipient, amount);\n        } else if (!_isExcluded[sender] && !_isExcluded[recipient]) {\n            _transferStandard(sender, recipient, amount);\n        } else if (_isExcluded[sender] && _isExcluded[recipient]) {\n            _transferBothExcluded(sender, recipient, amount);\n        } else {\n            _transferStandard(sender, recipient, amount);\n        }\n    }\n\n    function _transferStandard(address sender, address recipient, uint256 tAmount) private {\n        (uint256 rAmount, uint256 rTransferAmount, uint256 rFee, uint256 tTransferAmount, uint256 tFee) = _getValues(tAmount);\n        _rOwned[sender] = _rOwned[sender].sub(rAmount);\n        _rOwned[recipient] = _rOwned[recipient].add(rTransferAmount);       \n        _reflectFee(rFee, tFee);\n        emit Transfer(sender, recipient, tTransferAmount);\n    }\n\n    function _transferToExcluded(address sender, address recipient, uint256 tAmount) private {\n        (uint256 rAmount, uint256 rTransferAmount, uint256 rFee, uint256 tTransferAmount, uint256 tFee) = _getValues(tAmount);\n        _rOwned[sender] = _rOwned[sender].sub(rAmount);\n        _tOwned[recipient] = _tOwned[recipient].add(tTransferAmount);\n        _rOwned[recipient] = _rOwned[recipient].add(rTransferAmount);\n        _reflectFee(rFee, tFee);\n        emit Transfer(sender, recipient, tTransferAmount);\n    }\n\n    function _transferFromExcluded(address sender, address recipient, uint256 tAmount) private {\n        (uint256 rAmount, uint256 rTransferAmount, uint256 rFee, uint256 tTransferAmount, uint256 tFee) = _getValues(tAmount);\n        _tOwned[sender] = _tOwned[sender].sub(tAmount);\n        _rOwned[sender] = _rOwned[sender].sub(rAmount);\n        _rOwned[recipient] = _rOwned[recipient].add(rTransferAmount);   \n        _reflectFee(rFee, tFee);\n        emit Transfer(sender, recipient, tTransferAmount);\n    }\n\n    function _transferBothExcluded(address sender, address recipient, uint256 tAmount) private {\n        (uint256 rAmount, uint256 rTransferAmount, uint256 rFee, uint256 tTransferAmount, uint256 tFee) = _getValues(tAmount);\n        _tOwned[sender] = _tOwned[sender].sub(tAmount);\n        _rOwned[sender] = _rOwned[sender].sub(rAmount);\n        _tOwned[recipient] = _tOwned[recipient].add(tTransferAmount);\n        _rOwned[recipient] = _rOwned[recipient].add(rTransferAmount);        \n        _reflectFee(rFee, tFee);\n        emit Transfer(sender, recipient, tTransferAmount);\n    }\n\n    function _reflectFee(uint256 rFee, uint256 tFee) private {\n        _rTotal = _rTotal.sub(rFee);\n        _tFeeTotal = _tFeeTotal.add(tFee);\n    }\n\n    function _getValues(uint256 tAmount) private view returns (uint256, uint256, uint256, uint256, uint256) {\n        (uint256 tTransferAmount, uint256 tFee) = _getTValues(tAmount);\n        uint256 currentRate =  _getRate();\n        (uint256 rAmount, uint256 rTransferAmount, uint256 rFee) = _getRValues(tAmount, tFee, currentRate);\n        return (rAmount, rTransferAmount, rFee, tTransferAmount, tFee);\n    }\n\n    function _getTValues(uint256 tAmount) private pure returns (uint256, uint256) {\n        uint256 tFee = tAmount.div(100).mul(2);\n        uint256 tTransferAmount = tAmount.sub(tFee);\n        return (tTransferAmount, tFee);\n    }\n\n    function _getRValues(uint256 tAmount, uint256 tFee, uint256 currentRate) private pure returns (uint256, uint256, uint256) {\n        uint256 rAmount = tAmount.mul(currentRate);\n        uint256 rFee = tFee.mul(currentRate);\n        uint256 rTransferAmount = rAmount.sub(rFee);\n        return (rAmount, rTransferAmount, rFee);\n    }\n\n    function _getRate() private view returns(uint256) {\n        (uint256 rSupply, uint256 tSupply) = _getCurrentSupply();\n        return rSupply.div(tSupply);\n    }\n\n    function _getCurrentSupply() private view returns(uint256, uint256) {\n        uint256 rSupply = _rTotal;\n        uint256 tSupply = _tTotal;      \n        for (uint256 i = 0; i < _excluded.length; i++) {\n            if (_rOwned[_excluded[i]] > rSupply || _tOwned[_excluded[i]] > tSupply) return (_rTotal, _tTotal);\n            rSupply = rSupply.sub(_rOwned[_excluded[i]]);\n            tSupply = tSupply.sub(_tOwned[_excluded[i]]);\n        }\n        if (rSupply < _rTotal.div(_tTotal)) return (_rTotal, _tTotal);\n        return (rSupply, tSupply);\n    }\n}",
  "sourcePath": "/Users/iwan/code/preSale/contracts/2_FLOKII.sol",
  "compiler": {
    "name": "solc",
    "version": "0.8.0+commit.c7dfd78e.Emscripten.clang"
  },
  "schemaVersion": "3.4.1",
  "updatedAt": "2021-07-13T08:59:54.863Z",
  "networkType": "ethereum",
  "devdoc": {
    "kind": "dev",
    "methods": {
      "allowance(address,address)": {
        "details": "Returns the remaining number of tokens that `spender` will be allowed to spend on behalf of `owner` through {transferFrom}. This is zero by default. This value changes when {approve} or {transferFrom} are called."
      },
      "approve(address,uint256)": {
        "details": "Sets `amount` as the allowance of `spender` over the caller's tokens. Returns a boolean value indicating whether the operation succeeded. IMPORTANT: Beware that changing an allowance with this method brings the risk that someone may use both the old and the new allowance by unfortunate transaction ordering. One possible solution to mitigate this race condition is to first reduce the spender's allowance to 0 and set the desired value afterwards: https://github.com/ethereum/EIPs/issues/20#issuecomment-263524729 Emits an {Approval} event."
      },
      "balanceOf(address)": {
        "details": "Returns the amount of tokens owned by `account`."
      },
      "owner()": {
        "details": "Returns the address of the current owner."
      },
      "renounceOwnership()": {
        "details": "Leaves the contract without owner. It will not be possible to call `onlyOwner` functions anymore. Can only be called by the current owner. NOTE: Renouncing ownership will leave the contract without an owner, thereby removing any functionality that is only available to the owner."
      },
      "totalSupply()": {
        "details": "Returns the amount of tokens in existence."
      },
      "transfer(address,uint256)": {
        "details": "Moves `amount` tokens from the caller's account to `recipient`. Returns a boolean value indicating whether the operation succeeded. Emits a {Transfer} event."
      },
      "transferFrom(address,address,uint256)": {
        "details": "Moves `amount` tokens from `sender` to `recipient` using the allowance mechanism. `amount` is then deducted from the caller's allowance. Returns a boolean value indicating whether the operation succeeded. Emits a {Transfer} event."
      },
      "transferOwnership(address)": {
        "details": "Transfers ownership of the contract to a new account (`newOwner`). Can only be called by the current owner."
      }
    },
    "version": 1
  },
  "userdoc": {
    "kind": "user",
    "methods": {},
    "version": 1
  }
}