{
  "contractName": "FLOKIIPreSale",
  "abi": [
    {
      "inputs": [
        {
          "internalType": "address",
          "name": "argFlokii",
          "type": "address"
        },
        {
          "internalType": "address",
          "name": "argUsdt",
          "type": "address"
        },
        {
          "internalType": "address payable",
          "name": "argAdmin",
          "type": "address"
        },
        {
          "internalType": "uint256",
          "name": "argUsdtPrice",
          "type": "uint256"
        },
        {
          "internalType": "address",
          "name": "argEthPriceFeedAddress",
          "type": "address"
        }
      ],
      "stateMutability": "nonpayable",
      "type": "constructor"
    },
    {
      "anonymous": false,
      "inputs": [
        {
          "indexed": true,
          "internalType": "address",
          "name": "previousOwner",
          "type": "address"
        },
        {
          "indexed": true,
          "internalType": "address",
          "name": "newOwner",
          "type": "address"
        }
      ],
      "name": "OwnershipTransferred",
      "type": "event"
    },
    {
      "anonymous": false,
      "inputs": [
        {
          "indexed": false,
          "internalType": "uint256",
          "name": "amount",
          "type": "uint256"
        },
        {
          "indexed": false,
          "internalType": "enum FLOKIIPreSale.PurchaseType",
          "name": "purchaseType",
          "type": "uint8"
        },
        {
          "indexed": false,
          "internalType": "address",
          "name": "buyer",
          "type": "address"
        }
      ],
      "name": "Purchase",
      "type": "event"
    },
    {
      "inputs": [],
      "name": "flokii",
      "outputs": [
        {
          "internalType": "contract IERC20",
          "name": "",
          "type": "address"
        }
      ],
      "stateMutability": "view",
      "type": "function",
      "constant": true
    },
    {
      "inputs": [],
      "name": "owner",
      "outputs": [
        {
          "internalType": "address",
          "name": "",
          "type": "address"
        }
      ],
      "stateMutability": "view",
      "type": "function",
      "constant": true
    },
    {
      "inputs": [],
      "name": "renounceOwnership",
      "outputs": [],
      "stateMutability": "nonpayable",
      "type": "function"
    },
    {
      "inputs": [
        {
          "internalType": "address",
          "name": "newOwner",
          "type": "address"
        }
      ],
      "name": "transferOwnership",
      "outputs": [],
      "stateMutability": "nonpayable",
      "type": "function"
    },
    {
      "inputs": [],
      "name": "usdt",
      "outputs": [
        {
          "internalType": "contract IERC20",
          "name": "",
          "type": "address"
        }
      ],
      "stateMutability": "view",
      "type": "function",
      "constant": true
    },
    {
      "inputs": [],
      "name": "usdtPrice",
      "outputs": [
        {
          "internalType": "uint256",
          "name": "",
          "type": "uint256"
        }
      ],
      "stateMutability": "view",
      "type": "function",
      "constant": true
    },
    {
      "stateMutability": "payable",
      "type": "receive",
      "payable": true
    },
    {
      "inputs": [
        {
          "internalType": "uint256",
          "name": "argUsdtAmount",
          "type": "uint256"
        }
      ],
      "name": "purchaseByUSDT",
      "outputs": [],
      "stateMutability": "nonpayable",
      "type": "function"
    },
    {
      "inputs": [],
      "name": "purchaseByETH",
      "outputs": [],
      "stateMutability": "payable",
      "type": "function",
      "payable": true
    },
    {
      "inputs": [],
      "name": "withdraw",
      "outputs": [],
      "stateMutability": "nonpayable",
      "type": "function"
    },
    {
      "inputs": [],
      "name": "getEthPrice",
      "outputs": [
        {
          "internalType": "uint256",
          "name": "",
          "type": "uint256"
        }
      ],
      "stateMutability": "view",
      "type": "function",
      "constant": true
    }
  ],
  "bytecode": "0x60806040523480156200001157600080fd5b5060405162001078380380620010788339810160408190526200003491620000f3565b62000048620000426200009f565b620000a3565b600180546001600160a01b039687166001600160a01b03199182161790915560028054958716958216959095179094556003805493861693851693909317909255600455600580549190931691161790556200017f565b3390565b600080546001600160a01b038381166001600160a01b0319831681178455604051919092169283917f8be0079c531659141344cd1fd0a4f28419497f9722a3daafe3b4186f6b6457e09190a35050565b600080600080600060a086880312156200010b578081fd5b8551620001188162000166565b60208701519095506200012b8162000166565b60408701519094506200013e8162000166565b606087015160808801519194509250620001588162000166565b809150509295509295909350565b6001600160a01b03811681146200017c57600080fd5b50565b610ee9806200018f6000396000f3fe6080604052600436106100955760003560e01c8063d2737ee911610059578063d2737ee914610137578063e136f65f1461013f578063e57155f314610154578063f2fde38b14610169578063f5fc278814610189576100a6565b80632f48ab7d146100ab5780633ccfd60b146100d657806367c9b017146100eb578063715018a61461010d5780638da5cb5b14610122576100a6565b366100a6576100a433346101a9565b005b600080fd5b3480156100b757600080fd5b506100c0610331565b6040516100cd9190610b11565b60405180910390f35b3480156100e257600080fd5b506100a4610340565b3480156100f757600080fd5b50610100610483565b6040516100cd9190610dcd565b34801561011957600080fd5b506100a4610536565b34801561012e57600080fd5b506100c0610581565b6100a4610590565b34801561014b57600080fd5b5061010061059a565b34801561016057600080fd5b506100c06105a0565b34801561017557600080fd5b506100a4610184366004610a2f565b6105af565b34801561019557600080fd5b506100a46101a4366004610a76565b610620565b60006101b3610483565b90506000670de0b6b3a764000060045483856101cf9190610e52565b6101d99190610e52565b6101e790633b9aca00610e52565b6101f19190610e32565b9050806101ff600282610e32565b6102099190610e1a565b9050600081116102345760405162461bcd60e51b815260040161022b90610cba565b60405180910390fd5b6001546040516370a0823160e01b81526000916001600160a01b0316906370a0823190610265903090600401610b11565b60206040518083038186803b15801561027d57600080fd5b505afa158015610291573d6000803e3d6000fd5b505050506040513d601f19601f820116820180604052508101906102b59190610a8e565b9050808211156102d75760405162461bcd60e51b815260040161022b90610c67565b6001546102ee906001600160a01b03168684610799565b7f39ca1e3316f55050aa355fde0b80004e495b263c0f8806112c3b514531040aa98260018760405161032293929190610dd6565b60405180910390a15050505050565b6002546001600160a01b031681565b6103486107ef565b6001600160a01b0316610359610581565b6001600160a01b03161461037f5760405162461bcd60e51b815260040161022b90610d17565b6002546040516370a0823160e01b81526000916001600160a01b0316906370a08231906103b0903090600401610b11565b60206040518083038186803b1580156103c857600080fd5b505afa1580156103dc573d6000803e3d6000fd5b505050506040513d601f19601f820116820180604052508101906104009190610a8e565b905047811515806104115750600081115b61042d5760405162461bcd60e51b815260040161022b90610b95565b811561044a5760025461044a906001600160a01b03163384610799565b801561047f57604051339082156108fc029083906000818181858888f1935050505015801561047d573d6000803e3d6000fd5b505b5050565b600080600080600080600560009054906101000a90046001600160a01b03166001600160a01b031663feaf968c6040518163ffffffff1660e01b815260040160a06040518083038186803b1580156104da57600080fd5b505afa1580156104ee573d6000803e3d6000fd5b505050506040513d601f19601f820116820180604052508101906105129190610aa6565b945094509450945094506305f5e1008461052c9190610e32565b9550505050505090565b61053e6107ef565b6001600160a01b031661054f610581565b6001600160a01b0316146105755760405162461bcd60e51b815260040161022b90610d17565b61057f60006107f3565b565b6000546001600160a01b031690565b61057f33346101a9565b60045481565b6001546001600160a01b031681565b6105b76107ef565b6001600160a01b03166105c8610581565b6001600160a01b0316146105ee5760405162461bcd60e51b815260040161022b90610d17565b6001600160a01b0381166106145760405162461bcd60e51b815260040161022b90610bdb565b61061d816107f3565b50565b6000620f4240600454836106349190610e52565b61064290633b9aca00610e52565b61064c9190610e32565b90508061065a600282610e32565b6106649190610e1a565b9050600081116106865760405162461bcd60e51b815260040161022b90610cba565b6001546040516370a0823160e01b81526000916001600160a01b0316906370a08231906106b7903090600401610b11565b60206040518083038186803b1580156106cf57600080fd5b505afa1580156106e3573d6000803e3d6000fd5b505050506040513d601f19601f820116820180604052508101906107079190610a8e565b9050808211156107295760405162461bcd60e51b815260040161022b90610c67565b600254610741906001600160a01b0316333086610843565b600154610758906001600160a01b03163384610799565b7f39ca1e3316f55050aa355fde0b80004e495b263c0f8806112c3b514531040aa98160003360405161078c93929190610dd6565b60405180910390a1505050565b61047d8363a9059cbb60e01b84846040516024016107b8929190610b49565b60408051601f198184030181529190526020810180516001600160e01b03166001600160e01b03199093169290921790915261086a565b3390565b600080546001600160a01b038381166001600160a01b0319831681178455604051919092169283917f8be0079c531659141344cd1fd0a4f28419497f9722a3daafe3b4186f6b6457e09190a35050565b610864846323b872dd60e01b8585856040516024016107b893929190610b25565b50505050565b60006108bf826040518060400160405280602081526020017f5361666545524332303a206c6f772d6c6576656c2063616c6c206661696c6564815250856001600160a01b03166108f99092919063ffffffff16565b80519091501561047d57808060200190518101906108dd9190610a56565b61047d5760405162461bcd60e51b815260040161022b90610d83565b60606109088484600085610912565b90505b9392505050565b6060824710156109345760405162461bcd60e51b815260040161022b90610c21565b61093d856109d2565b6109595760405162461bcd60e51b815260040161022b90610d4c565b600080866001600160a01b031685876040516109759190610af5565b60006040518083038185875af1925050503d80600081146109b2576040519150601f19603f3d011682016040523d82523d6000602084013e6109b7565b606091505b50915091506109c78282866109dc565b979650505050505050565b803b15155b919050565b606083156109eb57508161090b565b8251156109fb5782518084602001fd5b8160405162461bcd60e51b815260040161022b9190610b62565b805169ffffffffffffffffffff811681146109d757600080fd5b600060208284031215610a40578081fd5b81356001600160a01b038116811461090b578182fd5b600060208284031215610a67578081fd5b8151801515811461090b578182fd5b600060208284031215610a87578081fd5b5035919050565b600060208284031215610a9f578081fd5b5051919050565b600080600080600060a08688031215610abd578081fd5b610ac686610a15565b9450602086015193506040860151925060608601519150610ae960808701610a15565b90509295509295909350565b60008251610b07818460208701610e71565b9190910192915050565b6001600160a01b0391909116815260200190565b6001600160a01b039384168152919092166020820152604081019190915260600190565b6001600160a01b03929092168252602082015260400190565b6000602082528251806020840152610b81816040850160208701610e71565b601f01601f19169190910160400192915050565b60208082526026908201527f464c4f4b494950726553616c653a204e6f2062616c616e636520746f2077697460408201526534323930bb9760d11b606082015260800190565b60208082526026908201527f4f776e61626c653a206e6577206f776e657220697320746865207a65726f206160408201526564647265737360d01b606082015260800190565b60208082526026908201527f416464726573733a20696e73756666696369656e742062616c616e636520666f6040820152651c8818d85b1b60d21b606082015260800190565b60208082526033908201527f464c4f4b494950726553616c653a2054686520746f6b656e73272062616c616e60408201527231b29034b99034b739bab33334b1b4b2b73a1760691b606082015260800190565b60208082526039908201527f464c4f4b494950726553616c653a2054686520707572636861736520616d6f7560408201527f6e742063616e6e6f74206265206c657373207468616e20302e00000000000000606082015260800190565b6020808252818101527f4f776e61626c653a2063616c6c6572206973206e6f7420746865206f776e6572604082015260600190565b6020808252601d908201527f416464726573733a2063616c6c20746f206e6f6e2d636f6e7472616374000000604082015260600190565b6020808252602a908201527f5361666545524332303a204552433230206f7065726174696f6e20646964206e6040820152691bdd081cdd58d8d9595960b21b606082015260800190565b90815260200190565b8381526060810160028410610dfb57634e487b7160e01b600052602160045260246000fd5b60208201939093526001600160a01b0391909116604090910152919050565b60008219821115610e2d57610e2d610e9d565b500190565b600082610e4d57634e487b7160e01b81526012600452602481fd5b500490565b6000816000190483118215151615610e6c57610e6c610e9d565b500290565b60005b83811015610e8c578181015183820152602001610e74565b838111156108645750506000910152565b634e487b7160e01b600052601160045260246000fdfea264697066735822122018639d64ce5d6e6d435ac707583a3971521cc065e076270dea9d5c72da36d2c764736f6c63430008000033",
  "immutableReferences": {},
  "source": "// SPDX-License-Identifier: MIT\npragma solidity ^0.8.0;\n\nimport \"@openzeppelin/contracts/access/Ownable.sol\";\nimport \"@openzeppelin/contracts/token/ERC20/utils/SafeERC20.sol\";\nimport \"@chainlink/contracts/src/v0.8/interfaces/AggregatorV3Interface.sol\";\n\ncontract FLOKIIPreSale is Ownable {\n    using SafeERC20 for IERC20;\n\n    enum PurchaseType {\n        USDT,\n        ETH\n    }\n\n    IERC20 public flokii;\n    IERC20 public usdt;\n    address payable private _admin;\n\n    uint public usdtPrice; // How many Flokiies per USDT.\n\n    AggregatorV3Interface internal priceFeed;\n\n    event Purchase(uint amount, PurchaseType purchaseType, address buyer);\n\n    constructor(address argFlokii, \n                address argUsdt, \n                address payable argAdmin, \n                uint argUsdtPrice, \n                address argEthPriceFeedAddress) {\n        flokii = IERC20(argFlokii);\n        usdt = IERC20(argUsdt);\n        _admin = argAdmin;\n        usdtPrice = argUsdtPrice;\n        priceFeed = AggregatorV3Interface(argEthPriceFeedAddress);\n    }\n\n    function purchaseByUSDT(uint argUsdtAmount) public {\n        uint tokenAmount = argUsdtAmount * usdtPrice * (10 ** 9) / (10 ** 6);\n        tokenAmount = tokenAmount / 2 + tokenAmount; // additional 50%\n        require(tokenAmount > 0, \"FLOKIIPreSale: The purchase amount cannot be less than 0.\");\n        uint tokenBalance = flokii.balanceOf(address(this));\n        require(tokenAmount <= tokenBalance, \"FLOKIIPreSale: The tokens' balance is insufficient.\");\n\n        usdt.safeTransferFrom(msg.sender, address(this), argUsdtAmount);\n        flokii.safeTransfer(msg.sender, tokenAmount);\n\n        emit Purchase(tokenBalance, PurchaseType.USDT, msg.sender);\n    }\n\n    function purchaseByETH() public payable {\n        purchaseByETH(msg.sender, msg.value);\n    }\n\n    function purchaseByETH(address argBuyer, uint argEthValue) private {\n        uint ethUsdPrice = getEthPrice(); // How many USDTs per ETH.\n        uint tokenAmount = argEthValue * ethUsdPrice * usdtPrice * (10 ** 9) / (10 ** 18);\n        tokenAmount = tokenAmount / 2 + tokenAmount; // additional 50%\n        require(tokenAmount > 0, \"FLOKIIPreSale: The purchase amount cannot be less than 0.\");\n        uint tokenBalance = flokii.balanceOf(address(this));\n        require(tokenAmount <= tokenBalance, \"FLOKIIPreSale: The tokens' balance is insufficient.\");\n\n        flokii.safeTransfer(argBuyer, tokenAmount);\n\n        emit Purchase(tokenAmount, PurchaseType.ETH, argBuyer);\n    }\n\n    receive() external payable {\n        purchaseByETH(msg.sender, msg.value);\n    }\n\n    function withdraw() public onlyOwner {\n        uint usdtBalance = usdt.balanceOf(address(this));\n        uint ethBalance = address(this).balance;\n        require((usdtBalance > 0) || (ethBalance > 0), \"FLOKIIPreSale: No balance to withdraw.\");\n        if(usdtBalance > 0) {\n            usdt.safeTransfer(msg.sender, usdtBalance);\n        }\n        if(ethBalance > 0) {\n            payable(msg.sender).transfer(ethBalance);\n        }\n    }\n\n    function getEthPrice() public view returns (uint) {\n        (\n            uint80 roundID, \n            int price,\n            uint startedAt,\n            uint timeStamp,\n            uint80 answeredInRound\n        ) = priceFeed.latestRoundData();\n        return uint(price) / (10 ** 8);\n    }\n}",
  "sourcePath": "/Users/iwan/code/preSale/contracts/3_FLOKIIPreSale.sol",
  "compiler": {
    "name": "solc",
    "version": "0.8.0+commit.c7dfd78e.Emscripten.clang"
  },
  "schemaVersion": "3.4.1",
  "updatedAt": "2021-08-12T09:31:30.387Z",
  "networkType": "ethereum",
  "devdoc": {
    "kind": "dev",
    "methods": {
      "owner()": {
        "details": "Returns the address of the current owner."
      },
      "renounceOwnership()": {
        "details": "Leaves the contract without owner. It will not be possible to call `onlyOwner` functions anymore. Can only be called by the current owner. NOTE: Renouncing ownership will leave the contract without an owner, thereby removing any functionality that is only available to the owner."
      },
      "transferOwnership(address)": {
        "details": "Transfers ownership of the contract to a new account (`newOwner`). Can only be called by the current owner."
      }
    },
    "version": 1
  },
  "userdoc": {
    "kind": "user",
    "methods": {},
    "version": 1
  }
}