{
  "contractName": "FLOKIIPreSale",
  "abi": [
    {
      "inputs": [
        {
          "internalType": "address",
          "name": "argFlokii",
          "type": "address"
        },
        {
          "internalType": "address",
          "name": "argUsdt",
          "type": "address"
        },
        {
          "internalType": "address payable",
          "name": "argAdmin",
          "type": "address"
        },
        {
          "internalType": "uint256",
          "name": "argUsdtPrice",
          "type": "uint256"
        },
        {
          "internalType": "uint256",
          "name": "argEthPrice",
          "type": "uint256"
        }
      ],
      "stateMutability": "nonpayable",
      "type": "constructor"
    },
    {
      "anonymous": false,
      "inputs": [
        {
          "indexed": true,
          "internalType": "address",
          "name": "previousOwner",
          "type": "address"
        },
        {
          "indexed": true,
          "internalType": "address",
          "name": "newOwner",
          "type": "address"
        }
      ],
      "name": "OwnershipTransferred",
      "type": "event"
    },
    {
      "anonymous": false,
      "inputs": [
        {
          "indexed": false,
          "internalType": "uint256",
          "name": "amount",
          "type": "uint256"
        },
        {
          "indexed": false,
          "internalType": "enum FLOKIIPreSale.PurchaseType",
          "name": "purchaseType",
          "type": "uint8"
        },
        {
          "indexed": false,
          "internalType": "address",
          "name": "buyer",
          "type": "address"
        }
      ],
      "name": "Purchase",
      "type": "event"
    },
    {
      "inputs": [],
      "name": "ethPrice",
      "outputs": [
        {
          "internalType": "uint256",
          "name": "",
          "type": "uint256"
        }
      ],
      "stateMutability": "view",
      "type": "function",
      "constant": true
    },
    {
      "inputs": [],
      "name": "flokii",
      "outputs": [
        {
          "internalType": "contract IERC20",
          "name": "",
          "type": "address"
        }
      ],
      "stateMutability": "view",
      "type": "function",
      "constant": true
    },
    {
      "inputs": [],
      "name": "owner",
      "outputs": [
        {
          "internalType": "address",
          "name": "",
          "type": "address"
        }
      ],
      "stateMutability": "view",
      "type": "function",
      "constant": true
    },
    {
      "inputs": [],
      "name": "renounceOwnership",
      "outputs": [],
      "stateMutability": "nonpayable",
      "type": "function"
    },
    {
      "inputs": [
        {
          "internalType": "address",
          "name": "newOwner",
          "type": "address"
        }
      ],
      "name": "transferOwnership",
      "outputs": [],
      "stateMutability": "nonpayable",
      "type": "function"
    },
    {
      "inputs": [],
      "name": "usdt",
      "outputs": [
        {
          "internalType": "contract IERC20",
          "name": "",
          "type": "address"
        }
      ],
      "stateMutability": "view",
      "type": "function",
      "constant": true
    },
    {
      "inputs": [],
      "name": "usdtPrice",
      "outputs": [
        {
          "internalType": "uint256",
          "name": "",
          "type": "uint256"
        }
      ],
      "stateMutability": "view",
      "type": "function",
      "constant": true
    },
    {
      "stateMutability": "payable",
      "type": "receive",
      "payable": true
    },
    {
      "inputs": [
        {
          "internalType": "uint256",
          "name": "argUsdtAmount",
          "type": "uint256"
        }
      ],
      "name": "purchaseByUSDT",
      "outputs": [],
      "stateMutability": "nonpayable",
      "type": "function"
    },
    {
      "inputs": [],
      "name": "purchaseByETH",
      "outputs": [],
      "stateMutability": "payable",
      "type": "function",
      "payable": true
    },
    {
      "inputs": [],
      "name": "withdraw",
      "outputs": [],
      "stateMutability": "nonpayable",
      "type": "function"
    }
  ],
  "bytecode": "0x608060405234801561001057600080fd5b50604051610ec8380380610ec883398101604081905261002f916100df565b61003f61003a61008b565b61008f565b600180546001600160a01b03199081166001600160a01b039788161790915560028054821695871695909517909455600380549094169290941691909117909155600455600555610154565b3390565b600080546001600160a01b038381166001600160a01b0319831681178455604051919092169283917f8be0079c531659141344cd1fd0a4f28419497f9722a3daafe3b4186f6b6457e09190a35050565b600080600080600060a086880312156100f6578081fd5b85516101018161013c565b60208701519095506101128161013c565b60408701519094506101238161013c565b6060870151608090970151959894975095949392505050565b6001600160a01b038116811461015157600080fd5b50565b610d65806101636000396000f3fe6080604052600436106100955760003560e01c8063e136f65f11610059578063e136f65f1461011d578063e57155f31461013f578063f2fde38b14610154578063f5fc278814610174578063ff186b2e14610194576100a6565b80632f48ab7d146100ab5780633ccfd60b146100d6578063715018a6146100eb5780638da5cb5b14610100578063d2737ee914610115576100a6565b366100a6576100a433346101a9565b005b600080fd5b3480156100b757600080fd5b506100c0610301565b6040516100cd91906109af565b60405180910390f35b3480156100e257600080fd5b506100a4610310565b3480156100f757600080fd5b506100a4610453565b34801561010c57600080fd5b506100c061049e565b6100a46104ad565b34801561012957600080fd5b506101326104b7565b6040516100cd9190610c6b565b34801561014b57600080fd5b506100c06104bd565b34801561016057600080fd5b506100a461016f36600461091c565b6104cc565b34801561018057600080fd5b506100a461018f366004610963565b61053d565b3480156101a057600080fd5b5061013261069e565b6000670de0b6b3a7640000600554836101c29190610cd8565b6101d090633b9aca00610cd8565b6101da9190610cb8565b9050600081116102055760405162461bcd60e51b81526004016101fc90610b58565b60405180910390fd5b6001546040516370a0823160e01b81526000916001600160a01b0316906370a08231906102369030906004016109af565b60206040518083038186803b15801561024e57600080fd5b505afa158015610262573d6000803e3d6000fd5b505050506040513d601f19601f82011682018060405250810190610286919061097b565b9050808211156102a85760405162461bcd60e51b81526004016101fc90610b05565b6001546102bf906001600160a01b031685846106a4565b7f39ca1e3316f55050aa355fde0b80004e495b263c0f8806112c3b514531040aa9826001866040516102f393929190610c74565b60405180910390a150505050565b6002546001600160a01b031681565b6103186106fa565b6001600160a01b031661032961049e565b6001600160a01b03161461034f5760405162461bcd60e51b81526004016101fc90610bb5565b6002546040516370a0823160e01b81526000916001600160a01b0316906370a08231906103809030906004016109af565b60206040518083038186803b15801561039857600080fd5b505afa1580156103ac573d6000803e3d6000fd5b505050506040513d601f19601f820116820180604052508101906103d0919061097b565b905047811515806103e15750600081115b6103fd5760405162461bcd60e51b81526004016101fc90610a33565b811561041a5760025461041a906001600160a01b031633846106a4565b801561044f57604051339082156108fc029083906000818181858888f1935050505015801561044d573d6000803e3d6000fd5b505b5050565b61045b6106fa565b6001600160a01b031661046c61049e565b6001600160a01b0316146104925760405162461bcd60e51b81526004016101fc90610bb5565b61049c60006106fe565b565b6000546001600160a01b031690565b61049c33346101a9565b60045481565b6001546001600160a01b031681565b6104d46106fa565b6001600160a01b03166104e561049e565b6001600160a01b03161461050b5760405162461bcd60e51b81526004016101fc90610bb5565b6001600160a01b0381166105315760405162461bcd60e51b81526004016101fc90610a79565b61053a816106fe565b50565b6000620f4240600454836105519190610cd8565b61055f90633b9aca00610cd8565b6105699190610cb8565b90506000811161058b5760405162461bcd60e51b81526004016101fc90610b58565b6001546040516370a0823160e01b81526000916001600160a01b0316906370a08231906105bc9030906004016109af565b60206040518083038186803b1580156105d457600080fd5b505afa1580156105e8573d6000803e3d6000fd5b505050506040513d601f19601f8201168201806040525081019061060c919061097b565b90508082111561062e5760405162461bcd60e51b81526004016101fc90610b05565b600254610646906001600160a01b031633308661074e565b60015461065d906001600160a01b031633846106a4565b7f39ca1e3316f55050aa355fde0b80004e495b263c0f8806112c3b514531040aa98160003360405161069193929190610c74565b60405180910390a1505050565b60055481565b61044d8363a9059cbb60e01b84846040516024016106c39291906109e7565b60408051601f198184030181529190526020810180516001600160e01b03166001600160e01b031990931692909217909152610775565b3390565b600080546001600160a01b038381166001600160a01b0319831681178455604051919092169283917f8be0079c531659141344cd1fd0a4f28419497f9722a3daafe3b4186f6b6457e09190a35050565b61076f846323b872dd60e01b8585856040516024016106c3939291906109c3565b50505050565b60006107ca826040518060400160405280602081526020017f5361666545524332303a206c6f772d6c6576656c2063616c6c206661696c6564815250856001600160a01b03166108049092919063ffffffff16565b80519091501561044d57808060200190518101906107e89190610943565b61044d5760405162461bcd60e51b81526004016101fc90610c21565b6060610813848460008561081d565b90505b9392505050565b60608247101561083f5760405162461bcd60e51b81526004016101fc90610abf565b610848856108dd565b6108645760405162461bcd60e51b81526004016101fc90610bea565b600080866001600160a01b031685876040516108809190610993565b60006040518083038185875af1925050503d80600081146108bd576040519150601f19603f3d011682016040523d82523d6000602084013e6108c2565b606091505b50915091506108d28282866108e3565b979650505050505050565b3b151590565b606083156108f2575081610816565b8251156109025782518084602001fd5b8160405162461bcd60e51b81526004016101fc9190610a00565b60006020828403121561092d578081fd5b81356001600160a01b0381168114610816578182fd5b600060208284031215610954578081fd5b81518015158114610816578182fd5b600060208284031215610974578081fd5b5035919050565b60006020828403121561098c578081fd5b5051919050565b600082516109a5818460208701610d03565b9190910192915050565b6001600160a01b0391909116815260200190565b6001600160a01b039384168152919092166020820152604081019190915260600190565b6001600160a01b03929092168252602082015260400190565b6000602082528251806020840152610a1f816040850160208701610d03565b601f01601f19169190910160400192915050565b60208082526026908201527f464c4f4b494950726553616c653a204e6f2062616c616e636520746f2077697460408201526534323930bb9760d11b606082015260800190565b60208082526026908201527f4f776e61626c653a206e6577206f776e657220697320746865207a65726f206160408201526564647265737360d01b606082015260800190565b60208082526026908201527f416464726573733a20696e73756666696369656e742062616c616e636520666f6040820152651c8818d85b1b60d21b606082015260800190565b60208082526033908201527f464c4f4b494950726553616c653a2054686520746f6b656e73272062616c616e60408201527231b29034b99034b739bab33334b1b4b2b73a1760691b606082015260800190565b60208082526039908201527f464c4f4b494950726553616c653a2054686520707572636861736520616d6f7560408201527f6e742063616e6e6f74206265206c657373207468616e20302e00000000000000606082015260800190565b6020808252818101527f4f776e61626c653a2063616c6c6572206973206e6f7420746865206f776e6572604082015260600190565b6020808252601d908201527f416464726573733a2063616c6c20746f206e6f6e2d636f6e7472616374000000604082015260600190565b6020808252602a908201527f5361666545524332303a204552433230206f7065726174696f6e20646964206e6040820152691bdd081cdd58d8d9595960b21b606082015260800190565b90815260200190565b8381526060810160028410610c9957634e487b7160e01b600052602160045260246000fd5b60208201939093526001600160a01b0391909116604090910152919050565b600082610cd357634e487b7160e01b81526012600452602481fd5b500490565b6000816000190483118215151615610cfe57634e487b7160e01b81526011600452602481fd5b500290565b60005b83811015610d1e578181015183820152602001610d06565b8381111561076f575050600091015256fea2646970667358221220f4743ba2bd79d9c929eee847877edadbd24ca8e6950ada5dded8af07a5d7a4dc64736f6c63430008000033",
  "immutableReferences": {},
  "source": "// SPDX-License-Identifier: MIT\npragma solidity ^0.8.0;\n\nimport \"@openzeppelin/contracts/access/Ownable.sol\";\nimport \"@openzeppelin/contracts/token/ERC20/utils/SafeERC20.sol\";\n\ncontract FLOKIIPreSale is Ownable {\n    using SafeERC20 for IERC20;\n\n    enum PurchaseType {\n        USDT,\n        ETH\n    }\n\n    IERC20 public flokii;\n    IERC20 public usdt;\n    address payable private _admin;\n\n    uint public usdtPrice;\n    uint public ethPrice;\n\n    event Purchase(uint amount, PurchaseType purchaseType, address buyer);\n\n    constructor(address argFlokii, \n                address argUsdt, \n                address payable argAdmin, \n                uint argUsdtPrice, \n                uint argEthPrice) {\n        flokii = IERC20(argFlokii);\n        usdt = IERC20(argUsdt);\n        _admin = argAdmin;\n        usdtPrice = argUsdtPrice;\n        ethPrice = argEthPrice;\n    }\n\n    function purchaseByUSDT(uint argUsdtAmount) public {\n        uint tokenAmount = argUsdtAmount * usdtPrice * (10 ** 9) / (10 ** 6);\n        require(tokenAmount > 0, \"FLOKIIPreSale: The purchase amount cannot be less than 0.\");\n        uint tokenBalance = flokii.balanceOf(address(this));\n        require(tokenAmount <= tokenBalance, \"FLOKIIPreSale: The tokens' balance is insufficient.\");\n\n        usdt.safeTransferFrom(msg.sender, address(this), argUsdtAmount);\n        flokii.safeTransfer(msg.sender, tokenAmount);\n\n        emit Purchase(tokenBalance, PurchaseType.USDT, msg.sender);\n    }\n\n    function purchaseByETH() public payable {\n        purchaseByETH(msg.sender, msg.value);\n    }\n\n    function purchaseByETH(address argBuyer, uint argEthValue) private {\n        uint tokenAmount = argEthValue * ethPrice * (10 ** 9) / (10 ** 18);\n        require(tokenAmount > 0, \"FLOKIIPreSale: The purchase amount cannot be less than 0.\");\n        uint tokenBalance = flokii.balanceOf(address(this));\n        require(tokenAmount <= tokenBalance, \"FLOKIIPreSale: The tokens' balance is insufficient.\");\n\n        flokii.safeTransfer(argBuyer, tokenAmount);\n\n        emit Purchase(tokenAmount, PurchaseType.ETH, argBuyer);\n    }\n\n    receive() external payable {\n        purchaseByETH(msg.sender, msg.value);\n    }\n\n    function withdraw() public onlyOwner {\n        uint usdtBalance = usdt.balanceOf(address(this));\n        uint ethBalance = address(this).balance;\n        require((usdtBalance > 0) || (ethBalance > 0), \"FLOKIIPreSale: No balance to withdraw.\");\n        if(usdtBalance > 0) {\n            usdt.safeTransfer(msg.sender, usdtBalance);\n        }\n        if(ethBalance > 0) {\n            payable(msg.sender).transfer(ethBalance);\n        }\n    }\n}",
  "sourcePath": "/Users/iwan/code/preSale/contracts/3_FLOKIIPreSale.sol",
  "compiler": {
    "name": "solc",
    "version": "0.8.0+commit.c7dfd78e.Emscripten.clang"
  },
  "schemaVersion": "3.4.1",
  "updatedAt": "2021-07-13T08:59:54.875Z",
  "networkType": "ethereum",
  "devdoc": {
    "kind": "dev",
    "methods": {
      "owner()": {
        "details": "Returns the address of the current owner."
      },
      "renounceOwnership()": {
        "details": "Leaves the contract without owner. It will not be possible to call `onlyOwner` functions anymore. Can only be called by the current owner. NOTE: Renouncing ownership will leave the contract without an owner, thereby removing any functionality that is only available to the owner."
      },
      "transferOwnership(address)": {
        "details": "Transfers ownership of the contract to a new account (`newOwner`). Can only be called by the current owner."
      }
    },
    "version": 1
  },
  "userdoc": {
    "kind": "user",
    "methods": {},
    "version": 1
  }
}